:1000000045C000004BC0000049C0000047C00000D0
:1000100045C0000043C0000041C000003FC00000D8
:100020003DC000003BC0000039C0000037C00000E8
:1000300035C0000033C0000031C000002FC00000F8
:100040002DC000002BC0000029C0000027C0000008
:1000500025C0000023C0000021C000001FC0000018
:100060001DC000001BC0000019C0000017C0000028
:1000700015C0000013C0000011C000000FC0000038
:100080000DC000000BC0000009C0000011241FBEFD
:10009000CFEFD0E1DEBFCDBF36D038C0B1CF20E04A
:1000A00030E008C0E3ECF9E03197F1F700C0000060
:1000B0002F5F3F4F28173907ACF308958FEF84BBAC
:1000C00087BB88B38B6088BB84E190E0E8CF08955C
:1000D00088B3806188BB81E28A95F1F7000088B31C
:1000E0008F7E88BB81E28A95F1F70000089588B37E
:1000F0008E7F88BB88B38D7F88BB8FEF88BB8EE1F6
:1001000085BBE6CF0895DADFF2DFFFCFF894FFCFAB
:00000001FF
