:100000000C9446000C94B2000C94B2000C94B20014
:100010000C94B2000C94B2000C94B2000C94B20098
:100020000C94B2000C94B2000C94B2000C94B20088
:100030000C94B2000C94B2000C94B2000C94B20078
:100040000C94B2000C94B2000C94B2000C94B20068
:100050000C94B2000C94B2000C94B2000C94B20058
:100060000C94B2000C94B2000C94B2000C94B20048
:100070000C94B2000C94B2000C94B2000C94B20038
:100080000C94B2000C94B2000C94B20011241FBE68
:10009000CFEFD0E1DEBFCDBF0E9452000C945000E4
:0400A000F894FFCF02
:1000A4000E94AF00182F8FEF81BB14BAC0E0D0E0DC
:1000B40000E0812F0E949600882339F00E94AF004F
:1000C400182F81E0011180E0082F112329F00E94EC
:1000D400AF00811101C010E0002319F08AEF90E015
:1000E40002C088EE93E0C817D9074CF082B360E0F1
:1000F40070E090E00E94A50082BBC0E0D0E081E007
:0A01040090E00E9487002196D4CFFE
:10010E0020E030E008C0E3ECF9E03197F1F700C0F1
:0E011E0000002F5F3F4F28173907ACF30895FC
:10012C00CF93C82F0E94AF00813021F4CC2321F053
:0E013C0080E003C080E001C081E0CF91089513
:10014A0021E030E002C0220F331F6A95E2F78227CE
:04015A00932708954A
:06015E0083B381700895D7
:040164000C940000F7
:00000001FF
