:100000000C944A000C94A0000C94A0000C94A00046
:100010000C94A0000C94A0000C94A0000C94A000E0
:100020000C94A0000C94A0000C94A0000C94A000D0
:100030000C94A0000C94A0000C94A0000C94A000C0
:100040000C94A0000C94A0000C94A0000C94A000B0
:100050000C94A0000C94A0000C94A0000C94A000A0
:100060000C94A0000C94A0000C94A0000C94A00090
:100070000C94A0000C94A0000C94A0000C94A00080
:100080000C94A0000C94A0000C94A000010001901E
:100090000001440011241FBECFEFD0E1DEBFCDBF71
:1000A000ECE8F0E040E019C0B791A79137912791B3
:1000B000079107FD0EC097918791EF01F92FE82F67
:1000C0000BBF07900D92A217B307D9F7FE011BBE15
:1000D00004C01D92A217B307E1F7E339F40721F733
:0C00E0000E9476000C947400F894FFCF8E
:1000EC008FEF8ABB00E010E0C0E0D0E010C0FE0152
:1000FC00EE0FFF1FEC0FFD1FE050FF4F80818BBBFD
:10010C00818192810E94910021960F5F1F4F0033D5
:06011C00110568F3E7CFB6
:1001220020E030E008C0E3ECF9E03197F1F700C0DD
:0E01320000002F5F3F4F28173907ACF30895E8
:040140000C9400001B
:100144000064000164000264000464000864001098
:100154006400206400016400026400046400086414
:10016400001064002064000164000364000764005C
:100174000F64001F64003F64003E64003C64003868
:100184006400306400206400013200003200013257
:10019400000032000132000032000132000032005F
:1001A4004032000032004032000032004032000091
:1001B40032004032000032000832000032000832BF
:1001C4000000320008320000320008320000320021
:00000001FF
