S0140000536572766F5F6472697665722E7372656316
S113000045C0000060C000005EC000005CC000008D
S11300105AC0000058C0000056C0000054C0000080
S113002052C0000080C000004EC000004CC0000060
S11300304AC0000048C0000046C0000044C00000A0
S113004042C0000040C000003EC000003CC00000B0
S11300503AC0000038C0000036C0000034C00000C0
S113006032C0000030C000002EC000002CC00000D0
S11300702AC0000028C0000026C0000024C00000E0
S113008022C0000020C000001EC0000011241FBEBA
S1130090CFEFD0E1DEBFCDBF11E0A0E0B1E0E6E1FB
S11300A0F2E000E00BBF02C007900D92A830B10748
S11300B0D9F721E0A8E0B1E001C01D92AD30B2074C
S11300C0E1F716D0A6C09CCF20E030E008C0E3ECF6
S11300D0F9E03197F1F700C000002F5F3F4F281778
S11300E03907ACF3089580EE87B986E886B9089598
S11300F010926100F8DF7FD080E092E075D084E652
S113010090E0E2DFFCCFE82FF0E0E050FF4F808189
S113011083B9089580E092E090930A0180930901E5
S11301208CE085BD08951F920F920FB60F92112493
S11301300BB60F922F933F934F935F936F937F93DD
S11301408F939F93AF93BF93EF93FF9314BC8091CE
S11301500801D9DF80910801873020F48F5F8093F4
S113016008012FC0109208018091090190910A01A1
S1130170009719F415BCCEDF24C08F719927892B01
S1130180B9F480916500813019F41092650007C0BC
S113019080916500811103C081E080936500E09146
S11301A00B01F0910C01309719F080910901099528
S11301B08091090190910A01019790930A0180931B
S11301C00901FF91EF91BF91AF919F918F917F9121
S11301D06F915F914F913F912F910F900BBE0F90B4
S11301E00FBE0F901F90189590930A0180930901F8
S11301F08CE085BD08958FEF82B98093640081E01F
S11302008093650013B882E383BD80E887BF789448
S10902100895F894FFCFED
S10B0216080C040602030109AF
S9030000FC
