S0180000756C747261736F6E696353656E736F722E737265634E
S113000045C0000082C0000056C0000054C000007B
S113001052C0000050C000004EC000004CC00000A0
S11300204AC0000048C0000046C0000044C00000B0
S113003042C0000040C000003EC000003CC00000C0
S11300403AC0000038C0000036C0000034C00000D0
S113005032C0000030C000002EC000002CC00000E0
S11300602AC0000028C0000026C0000024C00000F0
S113007022C0000020C000001EC000001CC0000000
S11300801AC0000018C0000016C0000011241FBED2
S1130090CFEFD0E1DEBFCDBF11E0A0E0B1E0ECE7EF
S11300A0F1E000E00BBF02C007900D92A230B1074F
S11300B0D9F747D061C0A4CF20E030E006C046E0C5
S11300C04A95F1F700C02F5F3F4F28173907B8F35F
S11300D0089520E030E008C0E7E8F3E13197F1F754
S11300E000C000002F5F3F4F28173907A8F3089579
S11300F0CF93DF93C5E6D0E018828AE090E0DCDF9E
S113010081E08883DF91CF9108951F920F920FB6FB
S11301100F9211248F9380910001813031F482E099
S113012080936A001092000106C083E080936A0005
S113013081E0809300018F910F900FBE0F901F906C
S113014018958FEF8093640011BA8ABBEAE6F0E059
S113015080818360808389B7816089BF7894C8DF98
S113016080910001811103C08FEF8BBB01C01BBACA
S10F017088EE93E0AEDFF3CFF894FFCFED
S105017C01007C
S9030000FC
