:1000000045C0000038C100005EC000005CC00000B8
:100010005AC0000058C0000056C0000054C0000084
:1000200052C0000050C000004EC000004CC0000094
:100030004AC0000048C0000046C0000044C00000A4
:1000400042C0000040C000003EC000003CC00000B4
:100050003AC0000038C0000036C0000034C00000C4
:1000600032C0000030C000002EC000002CC00000D4
:100070002AC0000028C0000026C0000024C00000E4
:1000800022C0000020C000001EC0000011241FBEBE
:10009000CFEFD0E1DEBFCDBF11E0A0E0B1E0E8E6F8
:1000A000F9E000E00BBF02C007900D92A430B10749
:1000B000D9F721E0A4E0B1E001C01D92A630B2075B
:1000C000E1F700D14FC49CCF9BB321E030E002C0E8
:1000D000220F331F8A95E2F7292B2BBB08959BB380
:1000E00021E030E002C0220F331F8A95E2F720950D
:1000F00029232BBB089586E090E0E6DF83EC99E0AE
:100100000197F1F700C0000086E090E0E8DF83ECA3
:1001100099E00197F1F700C000000895CF93C82F30
:1001200085BB84E090E0D0DFE6DFC295C07FC5BB31
:1001300084E090E0C9DFDFDFCF910895CF93C82F2F
:1001400085BB84E090E0CBDFD6DFC295C07FC5BB26
:1001500084E090E0C4DFCFDFCF91089581E0EEDF4F
:1001600087E893E10197F1F700C0000080E8E6CF4F
:100170000895CF938FEF84BB85BB8ABB15BA1BBA9A
:10018000C0E2C5BBB8DFC5BBB6DF80E885BBB3DF67
:1001900015BAB1DF80EF85BBAEDF15BAACDF80E604
:1001A00085BBA9DF82E0CADFA6DFCF910895CF9398
:1001B000DF93EC0102C0B2DF219688818111FBCF71
:1001C000DF91CF910895AF92BF92CF92DF92EF92DD
:1001D000FF920F931F93CF93DF93CDB7DEB7D82E47
:1001E000C92EADB6BEB69F938F930F2EF1E0EF2EC2
:1001F000F1E0FF2EF02DFF92EF921F921F921F92BF
:100200001F92C7D001962DB73EB7285F3F4F0FB65C
:10021000F8943EBF0FBE2DBF281B390B0FB6F894C4
:100220003EBF0FBE2DBF0DB71EB70F5F1F4FCF9242
:10023000DF92FF92EF929F938F931F930F93A9D01A
:10024000802F912FB4DF8DB79EB708960FB6F89424
:100250009EBF0FBE8DBF0FB6F894BEBE0FBEADBE23
:10026000DF91CF911F910F91FF90EF90DF90CF9092
:10027000BF90AF9008951F920F920FB60F92112466
:100280000BB60F922F933F934F935F936F937F9390
:100290008F939F93AF93BF93EF93FF935CD0FF91A6
:1002A000EF91BF91AF919F918F917F916F915F91EE
:1002B0004F913F912F910F900BBE0F900FBE0F905B
:1002C0001F9018952CD055DF87EA91E60197F1F73A
:1002D00000C0000043DF32D041DF56D074DF84E637
:1002E00090E00ED0F8CF20E030E006C043E04A9521
:1002F000F1F700002F5F3F4F28173907B8F3089533
:1003000020E030E008C0E3ECF9E03197F1F700C0FD
:1003100000002F5F3F4F28173907A8F308958FEF8C
:100320008093640011BA83E080936A0089B781608A
:1003300089BF1FBC8CE08EBD78940895CF93DF9366
:10034000C5E6D0E018828AE090E0CDDF81E08883C6
:10035000DF91CF91089580910001813041F482E0D6
:1003600080936A001DBC1CBC10920001089583E0BC
:1003700080936A008CB59DB590930501809304012C
:1003800081E080930001089580910401909105011E
:1003900008950F931F93CF93DF93CDB7DEB72E97BA
:1003A0000FB6F894DEBF0FBECDBF0D891E898F89B1
:1003B000988D26E02C831A83098397FF02C080E082
:1003C00090E801979E838D83AE01455E5F4F698DF6
:1003D0007A8DCE01019619D04D815E8157FD0AC0FC
:1003E0002F813885421753070CF49A01F801E20F68
:1003F000F31F10822E960FB6F894DEBF0FBECDBF4E
:10040000DF91CF911F910F9108952F923F924F92BC
:100410005F926F927F928F929F92AF92BF92CF9294
:10042000DF92EF92FF920F931F93CF93DF93CDB79D
:10043000DEB72B970FB6F894DEBF0FBECDBF6C01B1
:100440007B018A01FC0117821682838181FFBFC173
:10045000CE0101963C01F6019381F70193FD859150
:1004600093FF81917F01882309F4ADC1853239F46E
:1004700093FD859193FF81917F01853221F4B6012F
:1004800090E0D6D1E8CF912C212C312CFFE1F3154F
:10049000D8F08B3279F038F4803279F08332A1F4DD
:1004A000232D20611DC08D3261F0803369F4232D2E
:1004B000216016C0832D8260382EE32DE4603E2E2D
:1004C0002AC0F32DF8601DC037FC2DC020ED280F89
:1004D0002A3040F08E32B9F436FC75C1232D2064E9
:1004E000322E19C036FE06C08AE0989E200D1124D7
:1004F000922E11C0EAE02E9E200D1124222EF32D03
:10050000F0623F2E08C08C3621F4832D8068382E8F
:1005100002C0883641F4F70193FD859193FF8191E4
:100520007F018111B3CF982F9F7D9554933028F48C
:100530000C5F1F4F9FE399830DC0833631F08337E3
:1005400071F0833509F055C020C0F801808189839E
:100550000E5F1F4F88248394912C530112C02801F1
:10056000F2E04F0E511CF801A080B18036FE03C0AE
:10057000692D70E002C06FEF7FEFC5014ED14C01D5
:100580008201F32DFF773F2E15C0280122E0420E95
:10059000511CF801A080B18036FE03C0692D70E0C7
:1005A00002C06FEF7FEFC5012DD14C01F32DF06834
:1005B0003F2E820133FC19C0822D90E088169906E7
:1005C000A0F4B60180E290E033D12A94F5CFF50192
:1005D00037FC859137FE81915F01B60190E028D10B
:1005E00021102A9421E0821A91088114910479F74C
:1005F000E1C0843611F0893639F5F80137FE07C0BD
:1006000060817181828193810C5F1F4F08C060817E
:100610007181072E000C880B990B0E5F1F4FF32D75
:10062000FF763F2E97FF09C0909580957095619554
:100630007F4F8F4F9F4FF0683F2E2AE030E0A3019D
:1006400033D1882E861844C0853731F4232D2F7E70
:10065000B22E2AE030E025C0932D997FB92E8F3637
:10066000C1F018F4883579F0AEC0803719F08837BA
:1006700021F0A9C0E92FE061BE2EB4FE0DC0FB2D14
:10068000F460BF2E09C034FE0AC0292F2660B22EA6
:1006900006C028E030E005C020E130E002C020E1E3
:1006A00032E0F801B7FE07C06081718182819381D9
:1006B0000C5F1F4F06C06081718180E090E00E5F8B
:1006C0001F4FA301F1D0882E8618FB2DFF773F2EF8
:1006D00036FE0DC0232D2E7FA22E891458F434FE31
:1006E0000BC032FC09C0832D8E7EA82E05C0B82C0D
:1006F000A32C03C0B82C01C0B92CA4FE0FC0FE016E
:10070000E80DF11D8081803321F49A2D997EA92E68
:1007100009C0A2FE06C0B394B39404C08A2D8678A3
:1007200009F0B394A3FC10C0A0FE06C0B21480F47C
:10073000280C922C9B180DC0B21458F4B60180E21C
:1007400090E076D0B394F8CFB21418F42B1802C00E
:10075000982C212CA4FE0FC0B60180E390E068D055
:10076000A2FE16C0A1FC03C088E790E002C088E5A5
:1007700090E0B6010CC08A2D867851F0A1FE02C02F
:100780008BE201C080E2A7FC8DE2B60190E050D080
:10079000891430F4B60180E390E04AD09A94F8CFFF
:1007A0008A94F301E80DF11D8081B60190E040D0FC
:1007B0008110F6CF222009F44ECEB60180E290E0FF
:1007C00037D02A94F7CFF6018681978102C08FEF48
:1007D0009FEF2B960FB6F894DEBF0FBECDBFDF9113
:1007E000CF911F910F91FF90EF90DF90CF90BF902E
:1007F000AF909F908F907F906F905F904F903F90C1
:100800002F900895FC010590615070400110D8F7B9
:10081000809590958E0F9F1F0895FC016150704048
:1008200001900110D8F7809590958E0F9F1F089525
:100830000F931F93CF93DF93FB01238121FD03C00F
:100840008FEF9FEF2CC022FF16C046815781248175
:1008500035814217530744F4A081B1819D012F5F78
:100860003F4F318320838C93268137812F5F3F4F09
:100870003783268314C08B01EC01FB010084F185D2
:10088000E02D0995892BE1F6D80116968D919C9162
:100890001797019617969C938E931697CE01DF912A
:1008A000CF911F910F910895FA01AA27283051F195
:1008B000203181F1E8946F936E7F6E5F7F4F8F4F91
:1008C0009F4FAF4FB1E03ED0B4E03CD0670F781FF0
:1008D000891F9A1FA11D680F791F8A1F911DA11DD5
:1008E0006A0F711D811D911DA11D20D009F468940E
:1008F0003F912AE0269F11243019305D3193DEF6B6
:10090000CF010895462F4770405D4193B3E00FD06B
:10091000C9F7F6CF462F4F70405D4A3318F0495D56
:1009200031FD4052419302D0A9F7EACFB4E0A69539
:100930009795879577956795BA95C9F7009761055B
:10094000710508959B01AC010A2E069457954795B1
:1009500037952795BA95C9F7620F731F841F951FA6
:08096000A01D0895F894FFCFDB
:040968000125640001
:00000001FF
