S01100004C43444D61747269782E73726563CB
S113000045C000004BC0000049C0000047C00000CC
S113001045C0000043C0000041C000003FC00000D4
S11300203DC000003BC0000039C0000037C00000E4
S113003035C0000033C0000031C000002FC00000F4
S11300402DC000002BC0000029C0000027C0000004
S113005025C0000023C0000021C000001FC0000014
S11300601DC000001BC0000019C0000017C0000024
S113007015C0000013C0000011C000000FC0000034
S11300800DC000000BC0000009C0000011241FBEF9
S1130090CFEFD0E1DEBFCDBF2DD05CC0B1CF109289
S11300A0710080E280937000089584EA8093740064
S11300B0809174008823E4F7089584E980937400A0
S11300C008958093730084E8809374008091740091
S11300D08823E4F7089520E030E008C0E9EFF0E079
S11300E03197F1F700C000002F5F3F4F2817390701
S11300F0ACF30895D4DFD9DF80EEE3DF81E2E1DF02
S1130100DCDFD3DF80EEDDDF80EADBDFD6DFCDDFCF
S113011080EED7DF83EED5DFD0DFC7DF80EED1DF1F
S113012081E8CFDFCADFC1DF80EECBDF80E0C9DF4B
S113013080E0C7DFC2DF84EF91E0CDDFB6DF80EE81
S1130140C0DF80E0BEDF81E0BCDFB7DF84EF91E099
S10B0150C2DFE9CFF894FFCFF0
S9030000FC
