:1000000045C000004BC0000049C0000047C00000D0
:1000100045C0000043C0000041C000003FC00000D8
:100020003DC000003BC0000039C0000037C00000E8
:1000300035C0000033C0000031C000002FC00000F8
:100040002DC000002BC0000029C0000027C0000008
:1000500025C0000023C0000021C000001FC0000018
:100060001DC000001BC0000019C0000017C0000028
:1000700015C0000013C0000011C000000FC0000038
:100080000DC000000BC0000009C0000011241FBEFD
:10009000CFEFD0E1DEBFCDBF41D06EC0B1CF109267
:1000A000710080E280937000089584EA8093740068
:1000B000809174008823E4F7089584E980937400A4
:1000C00008958093730084E8809374008091740095
:1000D0008823E4F7089520E030E008C0E3ECF9E07D
:1000E0003197F1F700C000002F5F3F4F2817390705
:1000F000ACF30895CF93DF93D8DF80EEE2DF80E0AA
:10010000E0DFC0E0D0E003C080E0DBDF2196C0315B
:10011000D105D4F3D2DFDF91CF910895C0DFC5DFE1
:1001200080EECFDF81E2CDDFC8DFBFDF80EEC9DF49
:1001300080EAC7DFC2DFB9DF80EEC3DF83EEC1DF55
:10014000BCDFB3DF80EEBDDF81E8BBDFB6DFD2DF2F
:10015000C0E0D0E00CC0A9DF80EEB3DF8C2FB1DFB0
:100160008FEFAFDFAADF88EC90E0B5DF2296C031D9
:0C017000D1058CF3BFDFECCFF894FFCF7B
:00000001FF
