S01400006F7064726163687420332E322E7372656308
S113000072C000008DC000008BC0000089C00000D9
S113001087C0000085C0000083C0000081C00000CC
S11300207FC000007DC0000034C1000079C0000022
S113003077C0000075C0000073C0000071C00000EC
S11300406FC000006DC000006BC0000069C00000FC
S113005067C0000065C0000063C0000061C000000C
S11300605FC000005DC000005BC0000059C000001C
S113007057C0000055C0000053C0000051C000002C
S11300804FC000004DC000004BC00000080000003D
S1130090BE922449123EABAAAA2ABECDCCCC4C3E79
S11300A000000080BEABAAAAAA3E00000000BF0068
S11300B00000803F0000000000084178D3BB438764
S11300C0D1133D190E3CC3BD4282AD2B3E68EC8278
S11300D076BED98FE1A93E4C80EFFFBE01C4FF7FFD
S11300E03F000000000011241FBECFEFD0E1DEBFAF
S11300F0CDBF11E0A0E0B1E0E6E2FAE000E00BBF22
S113010002C007900D92A830B107D9F721E0A8E00A
S1130110B1E001C01D92AE30B207E1F701D181C454
S11301206FCF9BB321E030E002C0220F331F8A95CA
S1130130E2F7292B2BBB08959BB321E030E002C0EA
S1130140220F331F8A95E2F7209529232BBB0895AC
S113015086E090E0E6DF89EF90E00197F1F700C0D8
S1130160000086E090E0E8DF89EF90E00197F1F786
S113017000C000000895CF93C82F85BB84E090E0B1
S1130180D0DFE6DFC295C07FC5BB84E090E0C9DF65
S1130190DFDFCF910895CF93C82F85BB84E090E033
S11301A0CBDFD6DFC295C07FC5BB84E090E0C4DF5F
S11301B0CFDFCF91089581E0EEDF83EF91E00197E7
S11301C0F1F700C0000080E8E6CF0895CF938FEFE9
S11301D084BB85BB8ABB15BA1BBAC0E2C5BBB8DFFA
S11301E0C5BBB6DF80E885BBB3DF15BAB1DF80EFEE
S11301F085BBAEDF15BAACDF80E685BBA9DF82E044
S1130200CADFA6DFCF91089520E030E008C0EFEC0C
S1130210F7E03197F1F700C000002F5F3F4F281738
S11302203907ACF30895CF92DF92EF92FF92CF9308
S1130230DF93EC01BC01990F880B990B1CD1A7D15A
S113024020E030E040E85FE37FD0E2D06B017C0146
S113025061E070E0C601A3D29C0181E0C81AD10814
S11302600EC0F901EC0DFD1DCE016AE070E070D204
S1130270805D808381E0C81AD108C62FD72FDD2086
S113028084F7C901DF91CF91FF90EF90DF90CF9079
S113029008951F920F920FB60F9211240BB60F926E
S11302A02F933F934F935F936F937F938F939F937A
S11302B0AF93BF93EF93FF93809106019091070151
S11302C084BD8091080190910901019690930901E0
S11302D08093080170DF8091080190910901A3DFE8
S11302E04ADFFF91EF91BF91AF919F918F917F91E1
S11302F06F915F914F913F912F910F900BBE0F9093
S11303000FBE0F901F9018958091060190910701E0
S113031084BD87B7806487BF789487E085BD0895DE
S113032081B38F7781BB8FEF8ABB87BB4FDFECDF55
S113033084B58BBB809108019091090188BB8AE048
S113034090E062DFF5CF5058BB27AA270ED0E5C056
S1130350D6D030F0DBD020F031F49F3F11F41EF4FE
S1130360CBC00EF4E095E7FBC1C0E92FE7D080F3E2
S1130370BA17620773078407950718F071F49EF59E
S1130380FFC00EF4E0950B2EBA2FA02D0B01B9017E
S113039090010C01CA01A0011124FF27591B99F0F7
S11303A0593F50F4503E68F11A16F040A22F232F03
S11303B0342F4427585FF3CF469537952795A79553
S11303C0F0405395C9F77EF41F16BA0B620B730BFA
S11303D0840BBAF09150A1F0FF0FBB1F661F771F6B
S11303E0881FC2F70EC0BA0F621F731F841F48F420
S11303F0879577956795B795F7959E3F08F0B3CFA6
S11304009395880F08F09927EE0F9795879508958F
S113041004D06894B111B5C0089598D088F09F575E
S113042090F0B92F9927B751A0F0D1F0660F771F3C
S1130430881F991F1AF0BA95C9F712C0B13081F01C
S11304409FD0B1E008959CC0672F782F8827B85FAC
S113045039F0B93FCCF3869577956795B395D9F77D
S11304603EF490958095709561957F4F8F4F9F4F87
S11304700895E89409C097FB3EF490958095709593
S113048061957F4F8F4F9F4F9923A9F0F92F96E9DC
S1130490BB279395F695879577956795B795F11151
S11304A0F8CFFAF4BB0F11F460FF1BC06F5F7F4FEE
S11304B08F4F9F4F16C0882311F096E911C0772300
S11304C021F09EE8872F762F05C0662371F096E809
S11304D0862F70E060E02AF09A95660F771F881FD8
S11304E0DAF7880F9695879597F9089597F99F6796
S11304F080E870E060E008959FEF80EC08950024A8
S11305000A941616170618060906089500240A9474
S113051012161306140605060895092E0394000CFA
S113052011F4882352F0BB0F40F4BF2B11F460FF89
S113053004C06F5F7F4F8F4F9F4F089557FD9058B2
S1130540440F551F59F05F3F71F04795880F97FB93
S1130550991F61F09F3F79F087950895121613064D
S11305601406551FF2CF4695F1DF08C0161617067C
S11305701806991FF1CF86957105610508940895B1
S1130580E894BB2766277727CB0197F908950AD00B
S113059029ED3BE54EED5EE345C00EF0A6C0ACCFC1
S11305A06894A4CFD3DFC8F39923D1F3C6F3DF93C0
S11305B0CF931F930F93FF92C92FDD2788232AF02F
S11305C02197660F771F881FDAF720E030E040E8B4
S11305D05FEB9FE3883920F0803E30F021968F77DF
S11305E0B3DEECE8F0E003C0AFDEE9EBF0E08BD083
S11305F08B01BE01EC01FB2E6F5771097595771FB6
S1130600880B990B38DF28E132E741E35FE316D02A
S1130610AF2D9801AE01FF900F911F91CF91DF9103
S1130620A4DE7BCF0BD079CF6ADF28F06FDF18F020
S1130630952309F05BCF60CF1124A3CF7FDFA0F314
S1130640959FD1F3950F50E0551F629FF001729F63
S1130650BB27F00DB11D639FAA27F00DB11DAA1F82
S1130660649F6627B00DA11D661F829F2227B00DCF
S1130670A11D621F739FB00DA11D621F839FA00D5A
S1130680611D221F749F3327A00D611D231F849FAA
S1130690600D211D822F762F6A2F11249F57504001
S11306A08AF0E1F088234AF0EE0FFF1FBB1F661F9C
S11306B0771F881F91505040A9F79E3F510570F055
S11306C015CF5FCF5F3FECF3983EDCF386957795CB
S11306D06795B795F795E7959F5FC1F7FE2B880F50
S11306E0911D9695879597F908959F3F31F0915004
S11306F020F4879577956795B795880F911D969502
S1130700879597F90895DF93CF931F930F93FF92E3
S1130710EF92DF927B018C01689405C0DA2EEF0121
S11307208DDFFE01E894A591259135914591559170
S1130730AEF3EF011ADEFE019701A801DA9479F70E
S1130740DF90EF90FF900F911F91CF91DF9108956B
S113075097FB072E16F4009406D077FD08D00BD033
S113076007FC05D03EF4909581959F4F08957095B0
S113077061957F4F0895AA1BBB1B51E107C0AA1FB7
S1130780BB1FA617B70710F0A61BB70B881F991F2E
S11307905A95A9F780959095BC01CD0108950F93C2
S11307A01F93CF93DF93869F8001879F100D969FA1
S11307B0100D1124C8010DD0EC01009721F0A801FF
S11307C060E070E027D1CE01DF91CF911F910F91AE
S11307D008950F931F93CF93DF938230910510F404
S11307E082E090E0E0910C01F0910D0120E030E016
S11307F0A0E0B0E0309719F140815181028113816A
S113080048175907C8F08417950769F4109731F011
S113081012960C93129713961C9327C000930C0105
S113082010930D0122C02115310519F04217530709
S113083018F49A01BD01EF01DF01F801DBCF2115A6
S11308403105F9F0281B390B2430310580F48A81F5
S11308509B816115710521F0FB019383828304C0A0
S113086090930D0180930C01FE01329644C0FE0169
S1130870E20FF31F81939193225031093983288326
S11308803AC020910A0130910B01232B41F42091AD
S113089002013091030130930B0120930A0120914E
S11308A00001309101012115310541F42DB73EB706
S11308B04091040150910501241B350BE0910A017C
S11308C0F0910B01E217F307A0F42E1B3F0B28173E
S11308D0390778F0AC014E5F5F4F2417350748F0B5
S11308E04E0F5F1F50930B0140930A018193919324
S11308F002C0E0E0F0E0CF01DF91CF911F910F91B2
S11309000895CF93DF93009709F481C0FC013297D7
S113091013821282A0910C01B0910D01109781F401
S113092020813181820F931F20910A0130910B01A4
S11309302817390751F5F0930B01E0930A0167C0BA
S1130940ED0120E030E0CE17DF0740F44A815B81FF
S11309509E0141155105F1F0EA01F5CFD383C2831D
S113096040815181840F951FC817D90759F4888194
S11309709981840F951F0296918380838A819B813C
S1130980938382832115310529F4F0930D01E093BB
S11309900C013DC0E901FB83EA8349915991C40FDD
S11309A0D51FEC17FD0761F480819181840F951F99
S11309B00296E90199838883828193819B838A8348
S11309C0E0E0F0E012968D919C911397009719F056
S11309D0FD01DC01F7CF8D919C9111979D012E5F54
S11309E03F4F820F931F20910A0130910B0128176A
S11309F0390769F4309729F410920D0110920C0113
S1130A0002C013821282B0930B01A0930A01DF91FA
S1130A10CF910895DC0101C06D9341505040E0F73F
S1090A200895F894FFCFD5
S10B0A2600000E012000FFFF97
S9030000FC
